:100000000C9472000C947E000C947E000C947E0084
:100010000C947E000C947E000C947E000C947E0068
:100020000C947E000C947E000C947E000C947E0058
:100030000C947E000C947E000C947E000C947E0048
:100040000C947E000C947E000C947E000C947E0038
:100050000C947E000C947E000C947E000C947E0028
:100060000C947E000C947E000C947E000C947E0018
:100070000C947E000C947E000C947E000C947E0008
:100080000C947E000C947E000C947E000C947E00F8
:100090000C947E000C947E000C947E000C947E00E8
:1000A0000C947E000C947E000C947E000C947E00D8
:1000B0000C947E000C947E000C947E000C947E00C8
:1000C0000C947E000C947E000C947E000C947E00B8
:1000D0000C947E000C947E000C947E000C947E00A8
:1000E0000C947E0011241FBECFEFD1E2DEBFCDBF46
:1000F00000E00CBF0E943A020C945F030C940000D5
:10010000CF93DF93CDB7DEB781E091E0FC01208192
:1001100081E091E02062FC01208381E091E0FC011C
:10012000208181E091E02061FC01208383E390E065
:10013000FC01208183E390E02062FC01208384E3C2
:1001400090E0FC01208184E390E02F7DFC0120837E
:1001500082E091E0FC01208182E091E02F7DFC01B2
:1001600020830000DF91CF910895CF93DF93CDB727
:10017000DEB7A5970FB6F894DEBF0FBECDBF898B53
:1001800084E690E09A838983A7C082E091E0DC0155
:100190002C9182E091E02062FC01208382E091E0DA
:1001A000DC013C9182E091E020E12327FC012083E7
:1001B00080E090E0A8ECB2E48B839C83AD83BE83A7
:1001C00020E030E04AE755E46B817C818D819E819F
:1001D0000E94CA026E8B7F8B888F998F8E899F8930
:1001E000A88DB98D8F839887A987BA8720E030E0E2
:1001F00040E85FE36F81788589859A850E94440293
:1002000088232CF481E090E09C878B8755C020E008
:100210003FEF4FE757E46F81788589859A850E9483
:10022000C5028823D9F1D4F120E030E040E251E466
:100230006B817C818D819E810E94CA026A8F7B8F37
:100240008C8F9D8F8A8D9B8DAC8DBD8D8A8B9B8B6A
:10025000AC8BBD8B6A897B898C899D890E94490200
:100260006E8F7F8F88A399A3AE8DBF8DBC87AB8720
:1002700010C080E991E09E878D878D859E850197CE
:10028000F1F79E878D8700008B859C8501979C8761
:100290008B878B859C85009761F719C06F81788566
:1002A00089859A850E9449026AA37BA38CA39DA39A
:1002B000EAA1FBA1FC87EB878B859C85988B8F87B8
:1002C0008F8598890197F1F7988B8F870000898136
:1002D0009A8101979A83898389819A8199230CF065
:1002E00054CF00000000A5960FB6F894DEBF0FBEF5
:1002F000CDBFDF91CF910895CF93DF93CDB7DEB718
:100300008FEF0E94B5000000DF91CF910895CF9349
:10031000DF93CDB7DEB7A3970FB6F894DEBF0FBE5D
:10032000CDBF8F878F850E94B5000E947C0184E33A
:1003300090E0DC013C9184E390E020E22327FC0183
:10034000208380E090E0A8ECB2E489839A83AB83B9
:10035000BC8320E030E04AE755E469817A818B81F3
:100360009C810E94CA026C8B7D8B8E8B9F8B8C89AB
:100370009D89AE89BF898D839E83AF83B88720E036
:1003800030E040E85FE36D817E818F8198850E9437
:10039000440288232CF481E090E09A87898755C035
:1003A00020E03FEF4FE757E46D817E818F81988594
:1003B0000E94C5028823D9F1D4F120E030E040E268
:1003C00051E469817A818B819C810E94CA02688F85
:1003D000798F8A8F9B8F888D998DAA8DBB8D888B05
:1003E000998BAA8BBB8B688979898A899B890E94A2
:1003F00049026C8F7D8F8E8F9F8FAC8DBD8DBA879C
:10040000A98710C080E991E09C878B878B859C85AC
:100410000197F1F79C878B87000089859A85019762
:100420009A87898789859A85009761F719C06D81B8
:100430007E818F8198850E94490268A379A38AA34F
:100440009BA3E8A1F9A1FA87E98789859A859E8708
:100450008D878D859E850197F1F79E878D8700009A
:100460000000A3960FB6F894DEBF0FBECDBFDF919C
:10047000CF910895CF93DF93CDB7DEB70E94800070
:1004800085EA0E948701FCCF0E94780208F481E08F
:1004900008950E94A40288F09F5798F0B92F9927D9
:1004A000B751B0F0E1F0660F771F881F991F1AF05F
:1004B000BA95C9F714C0B13091F00E94BE02B1E004
:1004C00008950C94BE02672F782F8827B85F39F003
:1004D000B93FCCF3869577956795B395D9F73EF4F8
:1004E00090958095709561957F4F8F4F9F4F0895A0
:1004F000990F0008550FAA0BE0E8FEEF1616170635
:10050000E807F907C0F012161306E407F50798F09C
:10051000621B730B840B950B39F40A2661F0232BB5
:10052000242B252B21F408950A2609F4A140A69531
:100530008FEF811D811D089557FD9058440F551F61
:1005400059F05F3F71F04795880F97FB991F61F055
:100550009F3F79F087950895121613061406551FCC
:10056000F2CF4695F1DF08C0161617061806991F38
:10057000F1CF86957105610508940895E894BB272D
:1005800066277727CB0197F908950E94780208F42F
:100590008FEF08950E94DD020C944E030E944003E9
:1005A00038F00E94470320F0952311F00C94370394
:1005B0000C943D0311240C94BF020E949C0270F322
:1005C000959FC1F3950F50E0551F629FF001729FF8
:1005D000BB27F00DB11D639FAA27F00DB11DAA1F07
:1005E000649F6627B00DA11D661F829F2227B00D54
:1005F000A11D621F739FB00DA11D621F839FA00DDF
:10060000611D221F749F3327A00D611D231F849F2E
:10061000600D211D822F762F6A2F11249F57504085
:100620009AF0F1F088234AF0EE0FFF1FBB1F661F00
:10063000771F881F91505040A9F79E3F510580F0C9
:100640000C9437030C94BF025F3FE4F3983ED4F35D
:10065000869577956795B795F795E7959F5FC1F76D
:10066000FE2B880F911D9695879597F9089597F918
:100670009F6780E870E060E008959FEF80EC089548
:1006800000240A9416161706180609060895002471
:100690000A9412161306140605060895092E0394EB
:1006A000000C11F4882352F0BB0F40F4BF2B11F45F
:1006B00060FF04C06F5F7F4F8F4F9F4F0895F89486
:0206C000FFCF6A
:00000001FF
