:100000000C9472000C947E000C947E000C947E0084
:100010000C947E000C947E000C947E000C947E0068
:100020000C947E000C947E000C947E000C947E0058
:100030000C947E000C947E000C947E000C947E0048
:100040000C947E000C947E000C947E000C947E0038
:100050000C947E000C947E000C947E000C947E0028
:100060000C947E000C947E000C947E000C947E0018
:100070000C947E000C947E000C947E000C947E0008
:100080000C947E000C947E000C947E000C947E00F8
:100090000C947E000C947E000C947E000C947E00E8
:1000A0000C947E000C947E000C947E000C947E00D8
:1000B0000C947E000C947E000C947E000C947E00C8
:1000C0000C947E000C947E000C947E000C947E00B8
:1000D0000C947E000C947E000C947E000C947E00A8
:1000E0000C947E0011241FBECFEFD1E2DEBFCDBF46
:1000F00000E00CBF0E9480000C94BC000C94000037
:10010000CF93DF93CDB7DEB784E290E0FC0120818E
:1001100084E290E02260FC01208384E290E0FC0114
:10012000208184E290E02068FC01208385E290E059
:10013000FC01208185E290E02068FC01208385E2BB
:1001400090E0FC01208185E290E02068FC012083A2
:1001500083E290E0FC018081882F90E082709927F3
:10016000009769F785E290E0FC01208185E290E04C
:0C0170002F77FC012083E3CFF894FFCF31
:00000001FF
