:100000000C9472000C947E000C947E000C947E0084
:100010000C947E000C947E000C947E000C947E0068
:100020000C947E000C947E000C947E000C947E0058
:100030000C947E000C947E000C947E000C947E0048
:100040000C947E000C947E000C947E000C947E0038
:100050000C947E000C947E000C947E000C947E0028
:100060000C947E000C947E000C947E000C947E0018
:100070000C947E000C947E000C947E000C947E0008
:100080000C947E000C947E000C947E000C947E00F8
:100090000C947E000C947E000C947E000C947E00E8
:1000A0000C947E000C947E000C947E000C947E00D8
:1000B0000C947E000C947E000C947E000C947E00C8
:1000C0000C947E000C947E000C947E000C947E00B8
:1000D0000C947E000C947E000C947E000C947E00A8
:1000E0000C947E0011241FBECFEFD1E2DEBFCDBF46
:1000F00000E00CBF0E949B040C94C5050C9400000A
:10010000CF93DF93CDB7DEB7C654D1090FB6F894BD
:10011000DEBF0FBECDBF84E290E020ECDC012C936B
:1001200085E290E0FC0110821A82198294C080E07E
:1001300090E0A8ECB2E48B839C83AD83BE8320E087
:1001400030E04AE755E46B817C818D819E810E947D
:1001500030056FA378A789A79AA78FA198A5A9A50D
:10016000BAA58F839887A987BA8720E030E040E856
:100170005FE36F81788589859A850E94AA04882328
:100180002CF481E090E09C878B8755C020E03FEF06
:100190004FE757E46F81788589859A850E942B0502
:1001A0008823D9F1D4F120E030E040E251E46B81C2
:1001B0007C818D819E810E9430056BA77CA78DA7D5
:1001C0009EA78BA59CA5ADA5BEA58F8F98A3A9A31F
:1001D000BAA36F8D78A189A19AA10E94AF046FA7DD
:1001E00078AB89AB9AABAFA5B8A9BC87AB8710C079
:1001F00080E991E09E878D878D859E850197F1F737
:100200009E878D8700008B859C8501979C878B87B7
:100210008B859C85009761F719C06F8178858985EA
:100220009A850E94AF046BAB7CAB8DAB9EABEBA908
:10023000FCA9FC87EB878B859C85988B8F878F85A6
:1002400098890197F1F7988B8F87000089819A81AF
:1002500001969A83898389819A818430910509F076
:100260000CF465CF85E290E020ECDC012C931A823F
:1002700019829DC080E090E0A8ECB2E4898B9A8B53
:10028000AB8BBC8B20E030E04AE755E469897A8982
:100290008B899C890E9430056FAB78AF89AF9AAF8C
:1002A0008FA998ADA9ADBAAD8D8B9E8BAF8BB88F52
:1002B00020E030E040E85FE36D897E898F89988D8A
:1002C0000E94AA0488232CF481E090E09A8F898F01
:1002D0005EC020E03FEF4FE757E46D897E898F894C
:1002E000988D0E942B05882309F00CF43EC020E075
:1002F00030E040E251E469897A898B899C890E94C7
:1003000030056BAF7CAF8DAF9EAF8BAD9CADADAD0F
:10031000BEAD8BA39CA3ADA3BEA36BA17CA18DA1FD
:100320009EA10E94AF0423966CAF7DAF8EAF9FAFAE
:1003300023972196AEADBFAD2197BA8FA98F10C07C
:1003400080E991E09C8F8B8F8B8D9C8D0197F1F7CD
:100350009C8F8B8F0000898D9A8D01979A8F898F42
:10036000898D9A8D009761F71DC06D897E898F896F
:10037000988D0E94AF0427966CAF7DAF8EAF9FAF74
:1003800027972596EEADFFAD2597FA8FE98F898DDA
:100390009A8D9E8F8D8F8D8D9E8D0197F1F79E8FFB
:1003A0008D8F000089819A8101969A838983898142
:1003B0009A818430910509F00CF45CCFB1CECF93D3
:1003C000DF93CDB7DEB7C858D1090FB6F894DEBFBA
:1003D0000FBECDBF84E290E020ECDC012C9385E2DF
:1003E00090E0FC01108280E090E0AAE7B3E48BA7E4
:1003F0009CA7ADA7BEA720E030E04AE755E46BA577
:100400007CA58DA59EA50E9430052D966CAF7DAF75
:100410008EAF9FAF2D972D968CAD9DADAEADBFAD80
:100420002D978FA798ABA9ABBAAB20E030E040E89E
:100430005FE36FA578A989A99AA90E94AA048823D5
:100440002CF481E090E09CAB8BAB66C020E03FEFEA
:100450004FE757E46FA578A989A99AA90E942B05AF
:10046000882309F00CF446C020E030E040E251E47B
:100470006BA57CA58DA59EA50E94300561966CAFED
:100480007DAF8EAF9FAF619761968CAD9DADAEADE8
:10049000BFAD619729968CAF9DAFAEAFBFAF299727
:1004A00029966CAD7DAD8EAD9FAD29970E94AF04AE
:1004B00065966CAF7DAF8EAF9FAF65976396AEAD1F
:1004C000BFAD6397BCABABAB10C080E991E09EAB16
:1004D0008DAB8DA99EA90197F1F79EAB8DAB000066
:1004E0008BA99CA901979CAB8BAB8BA99CA900976E
:1004F00061F71DC06FA578A989A99AA90E94AF04C8
:1005000069966CAF7DAF8EAF9FAF69976796EEAD82
:10051000FFAD6797FCABEBAB8BA99CA998AF8FABFA
:100520008FA998AD0197F1F798AF8FAB000085E2E6
:1005300090E020E8DC012C9380E090E0AAE7B3E4AF
:100540008D8F9E8FAF8FB8A320E030E04AE755E44F
:100550006D8D7E8D8F8D98A10E9430056D966CAF4C
:100560007DAF8EAF9FAF6D976D968CAD9DADAEADEF
:10057000BFAD6D9789A39AA3ABA3BCA320E030E0E5
:1005800040E85FE369A17AA18BA19CA10E94AA0423
:1005900088232CF481E090E09EA38DA366C020E028
:1005A0003FEF4FE757E469A17AA18BA19CA10E947C
:1005B0002B05882309F00CF446C020E030E040E22F
:1005C00051E46D8D7E8D8F8D98A10E943005A1968E
:1005D0006CAF7DAF8EAF9FAFA197A1968CAD9DAD57
:1005E000AEADBFADA19725968CAF9DAFAEAFBFAFFF
:1005F000259725966CAD7DAD8EAD9FAD25970E945C
:10060000AF04A5966CAF7DAF8EAF9FAFA597A396B5
:10061000AEADBFADA397BEA3ADA310C080E991E07E
:1006200098A78FA38FA198A50197F1F798A78FA3FB
:1006300000008DA19EA101979EA38DA38DA19EA1D7
:10064000009761F71DC069A17AA18BA19CA10E94AE
:10065000AF04A9966CAF7DAF8EAF9FAFA997A79659
:10066000EEADFFADA797FEA3EDA38DA19EA19AA726
:1006700089A789A59AA50197F1F79AA789A70000EC
:1006800085E290E0DC011C9280E090E0AAE7B3E410
:100690008F87988BA98BBA8B20E030E04AE755E42E
:1006A0006F85788989899A890E943005AD966CAFEB
:1006B0007DAF8EAF9FAFAD97AD968CAD9DADAEAD1E
:1006C000BFADAD978B8B9C8BAD8BBE8B20E030E0AC
:1006D00040E85FE36B897C898D899E890E94AA042A
:1006E00088232CF481E090E0988F8F8B66C020E007
:1006F0003FEF4FE757E46B897C898D899E890E9483
:100700002B05882309F00CF446C020E030E040E2DD
:1007100051E46F85788989899A890E943005E1962C
:100720006CAF7DAF8EAF9FAFE197E1968CAD9DAD85
:10073000AEADBFADE19721968CAF9DAFAEAFBFAF71
:10074000219721966CAD7DAD8EAD9FAD21970E9416
:10075000AF04E5966CAF7DAF8EAF9FAFE597E396A4
:10076000AEADBFADE397B88FAF8B10C080E991E01D
:100770009A8F898F898D9A8D0197F1F79A8F898F3A
:1007800000008F89988D0197988F8F8B8F89988D16
:10079000009761F71DC06B897C898D899E890E94B5
:1007A000AF04E9966CAF7DAF8EAF9FAFE997E79648
:1007B000EEADFFADE797F88FEF8B8F89988D9C8F0B
:1007C0008B8F8B8D9C8D0197F1F79C8F8B8F000009
:1007D00085E290E020ECDC012C9380E090E0AAE739
:1007E000B3E489839A83AB83BC8320E030E04AE79B
:1007F00055E469817A818B819C810E943005ED9658
:100800006CAF7DAF8EAF9FAFED97ED968CAD9DAD8C
:10081000AEADBFADED978D839E83AF83B88720E0EB
:1008200030E040E85FE36D817E818F8198850E9492
:10083000AA0488232CF481E090E09A8789876EC00F
:1008400020E03FEF4FE757E46D817E818F819885EF
:100850000E942B05882309F00CF44AC020E030E008
:1008600040E251E469817A818B819C810E9430054C
:10087000C358DF4F688379838A839B83CD57D040E9
:10088000C358DF4F88819981AA81BB81CD57D04061
:1008900089AF9AAFABAFBCAF69AD7AAD8BAD9CAD54
:1008A0000E94AF04CF57DF4F688379838A839B838D
:1008B000C158D040CF57DF4FA881B981C158D0402F
:1008C000BA87A98710C080E991E09C878B878B85C8
:1008D0009C850197F1F79C878B87000089859A8515
:1008E00001979A87898789859A85009761F721C042
:1008F0006D817E818F8198850E94AF04CB57DF4F39
:10090000688379838A839B83C558D040CB57DF4F58
:10091000E881F981C558D040FA87E98789859A85A9
:100920009E878D878D859E850197F1F79E878D87A0
:100930000000000054CDCF93DF93CDB7DEB784E243
:1009400090E020ECFC0120830E9480000E94DF01E7
:100950000000FACF0E94DE0408F481E008950E94AE
:100960000A0588F09F5798F0B92F9927B751B0F032
:10097000E1F0660F771F881F991F1AF0BA95C9F723
:1009800014C0B13091F00E942405B1E008950C9498
:100990002405672F782F8827B85F39F0B93FCCF34B
:1009A000869577956795B395D9F73EF490958095A0
:1009B000709561957F4F8F4F9F4F0895990F000855
:1009C000550FAA0BE0E8FEEF16161706E807F90721
:1009D000C0F012161306E407F50798F0621B730BBC
:1009E000840B950B39F40A2661F0232B242B252B3D
:1009F00021F408950A2609F4A140A6958FEF811DE0
:100A0000811D089557FD9058440F551F59F05F3FC1
:100A100071F04795880F97FB991F61F09F3F79F020
:100A200087950895121613061406551FF2CF4695A2
:100A3000F1DF08C0161617061806991FF1CF869524
:100A40007105610508940895E894BB276627772708
:100A5000CB0197F908950E94DE0408F48FEF089502
:100A60000E9443050C94B4050E94A60538F00E942C
:100A7000AD0520F0952311F00C949D050C94A30571
:100A800011240C9425050E94020570F3959FC1F373
:100A9000950F50E0551F629FF001729FBB27F00D2C
:100AA000B11D639FAA27F00DB11DAA1F649F662781
:100AB000B00DA11D661F829F2227B00DA11D621FD0
:100AC000739FB00DA11D621F839FA00D611D221F8A
:100AD000749F3327A00D611D231F849F600D211D6E
:100AE000822F762F6A2F11249F5750409AF0F1F0F1
:100AF00088234AF0EE0FFF1FBB1F661F771F881F5A
:100B000091505040A9F79E3F510580F00C949D05EF
:100B10000C9425055F3FE4F3983ED4F386957795D2
:100B20006795B795F795E7959F5FC1F7FE2B880FFF
:100B3000911D9695879597F9089597F99F6780E895
:100B400070E060E008959FEF80EC089500240A941F
:100B50001616170618060906089500240A94121698
:100B60001306140605060895092E0394000C11F4CB
:100B7000882352F0BB0F40F4BF2B11F460FF04C078
:0E0B80006F5F7F4F8F4F9F4F0895F894FFCF08
:00000001FF
