:100000000C9472000C9466020C94A2020C9486006C
:100010000C9486000C9486000C9486000C94860048
:100020000C9486000C9486000C9486000C94860038
:100030000C9486000C9486000C9486000C94860028
:100040000C9486000C9486000C9486000C94860018
:100050000C9486000C9486000C9486000C94860008
:100060000C9486000C9486000C9486000C948600F8
:100070000C9486000C9486000C9486000C948600E8
:100080000C9486000C9486000C9486000C948600D8
:100090000C9486000C9486000C9486000C948600C8
:1000A0000C9486000C9486000C9486000C948600B8
:1000B0000C9486000C9486000C9486000C948600A8
:1000C0000C9486000C9486000C9486000C94860098
:1000D0000C9486000C9486000C9486000C94860088
:1000E0000C94860011241FBECFEFD1E2DEBFCDBF3E
:1000F00000E00CBF22E0A0E0B2E001C01D92A930F8
:10010000B207E1F70E94DE020C94E7020C940000B3
:10011000CF93DF93CDB7DEB784E290E0FC0120817E
:1001200084E290E02068FC0120838AE091E0FC01F9
:1001300020818AE091E02062FC0120838AE091E046
:10014000FC0120818AE091E02860FC01208381E2AB
:1001500090E0FC01208181E290E02160FC0120839D
:1001600080E390E0FC01208180E390E02D7FFC01A2
:10017000208380E390E0FC01208180E390E02B7FEE
:10018000FC01208380E390E0FC01208180E390E08B
:10019000277FFC01208384E290E0FC01208184E23F
:1001A00090E02068FC0120838AE091E0FC0120813E
:1001B0008AE091E02460FC0120838AE091E0FC0168
:1001C00020818AE091E02160FC01208384E290E0BC
:1001D000FC01208184E290E02160FC01208384E224
:1001E00090E0FC01208184E290E02460FC01208307
:1001F00087E290E0FC01208187E290E02064FC012E
:1002000020830000DF91CF910895CF93DF93CDB786
:10021000DEB78BE091E0FC0120818BE091E0277F4D
:10022000FC0120838BE091E0FC0120818BE091E0D8
:100230002062FC0120838FEF9FEF90930802809350
:1002400007020000DF91CF910895CF93DF93CDB7E0
:10025000DEB78BE091E0FC0120818BE091E02F7D07
:10026000FC0120838BE091E0FC0120818BE091E098
:100270002860FC01208381E090E090930802809345
:1002800007020000DF91CF910895CF93DF93CDB7A0
:10029000DEB78BE091E0FC0120818BE091E02860EB
:1002A000FC0120838BE091E0FC0120818BE091E058
:1002B0002062FC0120830000DF91CF910895CF934D
:1002C000DF93CDB7DEB783E290E0FC018081882F19
:1002D00090E081709927009799F081E090E09093E9
:1002E0000802809307028091010290910202009718
:1002F00041F581E090E0909302028093010221C0D9
:10030000109208021092070280910102909102025D
:100310000097B9F010920202109201028BE091E076
:10032000FC0130818BE091E020E22327FC01208357
:100330008BE091E0FC0120818BE091E02860FC01E2
:1003400020830000DF91CF910895CF93DF93CDB745
:10035000DEB783E290E0FC018081882F90E084701A
:100360009927009799F08FEF9FEF90930802809361
:1003700007028091030290910402009741F581E009
:1003800090E0909304028093030221C0109208022F
:100390001092070280910302909104020097B9F035
:1003A00010920402109203028BE091E0FC01308174
:1003B0008BE091E028E02327FC0120838BE091E093
:1003C000FC0120818BE091E02062FC012083000091
:1003D000DF91CF910895CF93DF93CDB7DEB789E05A
:1003E00091E0FC018081882F90E08170992700972F
:1003F00069F080910502909106020097D9F481E09E
:1004000090E0909306028093050214C0809105024B
:1004100090910602009771F0109206021092050268
:100420008BE091E0FC0130818BE091E024E0232718
:10043000FC0120830000DF91CF910895CF93DF93DB
:10044000CDB7DEB784E290E0FC01208184E290E049
:100450002068FC01208384E290E0FC01208184E29A
:1004600090E02064FC01208384E290E0FC01208184
:1004700084E290E02D7FFC01208384E290E0FC0187
:10048000208184E290E0277FFC01208385E290E0D8
:10049000FC01208185E290E02A60FC0120838DE34D
:1004A00090E0FC0120818DE390E02360FC0120833B
:1004B00085E590E0FC01208185E590E02A60FC0163
:1004C000208378940000DF91CF9108951F920F92BE
:1004D0000FB60F9211240BB60F928F939F93EF9349
:1004E000FF93CF93DF93CDB7DEB783E290E0FC01BB
:1004F0008081882F90E0827099270097A9F483E289
:1005000090E0FC018081882F90E088709927009707
:1005100031F4809100028F5F8093000205C08091CA
:1005200000028150809300020000DF91CF91FF9183
:10053000EF919F918F910F900BBE0F900FBE0F9078
:100540001F9018951F920F920FB60F9211240BB6A1
:100550000F928F939F93EF93FF93CF93DF93CDB73A
:10056000DEB783E290E0FC018081882F90E0887004
:1005700099270097A9F483E290E0FC018081882FFD
:1005800090E082709927009731F4809100028150A9
:100590008093000205C0809100028F5F809300026B
:1005A0000000DF91CF91FF91EF919F918F910F907C
:1005B0000BBE0F900FBE0F901F901895CF93DF9337
:1005C000CDB7DEB70E941E020E942501FDCFF89430
:0205D000FFCF5B
:00000001FF
