:100000000C9472000C947E000C947E000C947E0084
:100010000C947E000C947E000C947E000C947E0068
:100020000C947E000C947E000C947E000C947E0058
:100030000C947E000C947E000C947E000C947E0048
:100040000C947E000C947E000C947E000C947E0038
:100050000C947E000C947E000C947E000C947E0028
:100060000C947E000C947E000C947E000C947E0018
:100070000C947E000C947E000C947E000C947E0008
:100080000C947E000C947E000C947E000C94AB00CB
:100090000C947E000C947E000C947E000C947E00E8
:1000A0000C947E000C947E000C947E000C947E00D8
:1000B0000C947E000C947E000C947E000C947E00C8
:1000C0000C947E000C947E000C947E000C947E00B8
:1000D0000C947E000C947E000C947E000C947E00A8
:1000E0000C947E0011241FBECFEFD1E2DEBFCDBF46
:1000F00000E00CBF0E9479010C949E020C94000059
:10010000CF93DF93CDB7DEB784E290E0FC0120818E
:1001100084E290E02064FC0120830000DF91CF9115
:100120000895CF93DF93CDB7DEB780E990E0FC016F
:10013000108281E990E025E0FC01208382E990E0D3
:10014000FC01108281E790E021E0FC0120830000A7
:10015000DF91CF9108951F920F920FB60F92112445
:100160000BB60F922F933F934F935F936F937F93B1
:100170008F939F93AF93BF93EF93FF93CF93DF93AF
:10018000CDB7DEB7A297DEBFCDBF84E290E0DC0141
:100190002C9184E290E02F7BFC01208380E090E0B2
:1001A000A8ECB2E489839A83AB83BC8320E030E07F
:1001B0004AE755E469817A818B819C810E9409021A
:1001C0006B8B7C8B8D8B9E8B8B899C89AD89BE893B
:1001D0008D839E83AF83B88720E030E040E85FE303
:1001E0006D817E818F8198850E94830188232CF404
:1001F00081E090E09A87898755C020E03FEF4FE784
:1002000057E46D817E818F8198850E940402882346
:10021000D9F1D4F120E030E040E251E469817A8103
:100220008B819C810E9409026F8B788F898F9A8FB6
:100230008F89988DA98DBA8D8F87988BA98BBA8B52
:100240006F85788989899A890E9488016B8F7C8F54
:100250008D8F9E8FAB8DBC8DBA87A98710C080E92A
:1002600091E09C878B878B859C850197F1F79C8714
:100270008B87000089859A8501979A878987898568
:100280009A85009761F719C06D817E818F8198856D
:100290000E9488016F8F78A389A39AA3EF8DF8A19C
:1002A000FA87E98789859A859E878D878D859E85C2
:1002B0000197F1F79E878D8700000000A2960FB688
:1002C000F894DEBF0FBECDBFDF91CF91FF91EF91CC
:1002D000BF91AF919F918F917F916F915F914F915E
:1002E0003F912F910F900BBE0F900FBE0F901F905C
:1002F0001895CF93DF93CDB7DEB70E9491000E948F
:1003000080000000FECF0E94B70108F481E008954C
:100310000E94E30188F09F5798F0B92F9927B751B1
:10032000B0F0E1F0660F771F881F991F1AF0BA9599
:10033000C9F714C0B13091F00E94FD01B1E00895F9
:100340000C94FD01672F782F8827B85F39F0B93FEB
:10035000CCF3869577956795B395D9F73EF490954C
:100360008095709561957F4F8F4F9F4F0895990F9E
:100370000008550FAA0BE0E8FEEF16161706E8076F
:10038000F907C0F012161306E407F50798F0621B90
:10039000730B840B950B39F40A2661F0232B242B65
:1003A000252B21F408950A2609F4A140A6958FEF84
:1003B000811D811D089557FD9058440F551F59F018
:1003C0005F3F71F04795880F97FB991F61F09F3F42
:1003D00079F087950895121613061406551FF2CF6B
:1003E0004695F1DF08C0161617061806991FF1CFBB
:1003F00086957105610508940895E894BB276627E2
:100400007727CB0197F908950E94B70108F48FEF81
:1004100008950E941C020C948D020E947F0238F005
:100420000E94860220F0952311F00C9476020C9421
:100430007C0211240C94FE010E94DB0170F3959F55
:10044000C1F3950F50E0551F629FF001729FBB27CB
:10045000F00DB11D639FAA27F00DB11DAA1F649F67
:100460006627B00DA11D661F829F2227B00DA11D1A
:10047000621F739FB00DA11D621F839FA00D611DA0
:10048000221F749F3327A00D611D231F849F600DC1
:10049000211D822F762F6A2F11249F5750409AF0EA
:1004A000F1F088234AF0EE0FFF1FBB1F661F771F76
:1004B000881F91505040A9F79E3F510580F00C9441
:1004C00076020C94FE015F3FE4F3983ED4F38695E8
:1004D00077956795B795F795E7959F5FC1F7FE2BE1
:1004E000880F911D9695879597F9089597F99F67BD
:1004F00080E870E060E008959FEF80EC08950024AC
:100500000A941616170618060906089500240A9478
:1005100012161306140605060895092E0394000CFE
:1005200011F4882352F0BB0F40F4BF2B11F460FF8D
:1005300004C06F5F7F4F8F4F9F4F0895F894FFCF98
:00000001FF
