:100000000C9472000C94D0000C940C010C9486009B
:100010000C9486000C9486000C9486000C94860048
:100020000C9486000C9486000C9486000C94860038
:100030000C9486000C9486000C9486000C94860028
:100040000C9486000C9486000C9486000C94860018
:100050000C9486000C9486000C9486000C94860008
:100060000C9486000C9486000C9486000C948600F8
:100070000C9486000C9486000C9486000C948600E8
:100080000C9486000C9486000C9486000C948600D8
:100090000C9486000C9486000C9486000C948600C8
:1000A0000C9486000C9486000C9486000C948600B8
:1000B0000C9486000C9486000C9486000C948600A8
:1000C0000C9486000C9486000C9486000C94860098
:1000D0000C9486000C9486000C9486000C94860088
:1000E0000C94860011241FBECFEFD1E2DEBFCDBF3E
:1000F00000E00CBF22E0A0E0B2E001C01D92A13000
:10010000B207E1F70E9448010C9437030C940000F9
:10011000CF93DF93CDB7DEB784E290E0FC0120817E
:1001200084E290E02068FC01208384E290E0FC01FE
:10013000208184E290E02064FC01208384E290E04E
:10014000FC01208184E290E02D7FFC01208384E289
:1001500090E0FC01208184E290E0277FFC01208375
:1001600085E290E0FC01208185E290E02A60FC01BC
:1001700020838DE390E0FC0120818DE390E02360FB
:10018000FC01208385E590E0FC01208185E590E07D
:100190002A60FC01208378940000DF91CF910895BC
:1001A0001F920F920FB60F9211240BB60F928F93DE
:1001B0009F93EF93FF93CF93DF93CDB7DEB783E2A7
:1001C00090E0FC018081882F90E082709927009751
:1001D000A9F483E290E0FC018081882F90E0887090
:1001E0009927009731F4809100028F5F809300027D
:1001F00005C0809100028150809300020000DF91D1
:10020000CF91FF91EF919F918F910F900BBE0F9027
:100210000FBE0F901F9018951F920F920FB60F925E
:1002200011240BB60F928F939F93EF93FF93CF936D
:10023000DF93CDB7DEB783E290E0FC018081882FA9
:1002400090E0887099270097A9F483E290E0FC0180
:100250008081882F90E082709927009731F48091F7
:10026000000281508093000205C0809100028F5FE0
:10027000809300020000DF91CF91FF91EF919F9159
:100280008F910F900BBE0F900FBE0F901F9018957F
:10029000CF93DF93CDB7DEB7A2970FB6F894DEBF4A
:1002A0000FBECDBF0E948800809100028823A1F07C
:1002B0009CF085E290E0DC012C9185E290E02068E2
:1002C000FC01208385E290E0DC012C9185E290E046
:1002D0002F7BFC01208320C08091000288239CF4A6
:1002E00085E290E0DC012C9185E290E02064FC0145
:1002F000208385E290E0DC012C9185E290E02F776D
:10030000FC01208309C085E290E0DC012C9185E2AC
:1003100090E02F73FC01208380E090E0A0E2B1E444
:1003200089839A83AB83BC8320E030E04AE755E4BD
:1003300069817A818B819C810E94A2026B8B7C8B6C
:100340008D8B9E8B8B899C89AD89BE898D839E8385
:10035000AF83B88720E030E040E85FE36D817E81C5
:100360008F8198850E941C0288232CF481E090E004
:100370009A87898755C020E03FEF4FE757E46D81AA
:100380007E818F8198850E949D028823D9F1D4F1C6
:1003900020E030E040E251E469817A818B819C81E8
:1003A0000E94A2026F8B788F898F9A8F8F89988D88
:1003B000A98DBA8D8F87988BA98BBA8B6F85788919
:1003C00089899A890E9421026B8F7C8F8D8F9E8FE5
:1003D000AB8DBC8DBA87A98710C080E991E09C875E
:1003E0008B878B859C850197F1F79C878B87000015
:1003F00089859A8501979A87898789859A85009743
:1004000061F719C06D817E818F8198850E942102DC
:100410006F8F78A389A39AA3EF8DF8A1FA87E98754
:1004200089859A859E878D878D859E850197F1F7B1
:100430009E878D87000038CF0E94500208F481E02B
:1004400008950E947C0288F09F5798F0B92F992751
:10045000B751B0F0E1F0660F771F881F991F1AF0AF
:10046000BA95C9F714C0B13091F00E949602B1E07C
:1004700008950C949602672F782F8827B85F39F07B
:10048000B93FCCF3869577956795B395D9F73EF448
:1004900090958095709561957F4F8F4F9F4F0895F0
:1004A000990F0008550FAA0BE0E8FEEF1616170685
:1004B000E807F907C0F012161306E407F50798F0ED
:1004C000621B730B840B950B39F40A2661F0232B06
:1004D000242B252B21F408950A2609F4A140A69582
:1004E0008FEF811D811D089557FD9058440F551FB2
:1004F00059F05F3F71F04795880F97FB991F61F0A6
:100500009F3F79F087950895121613061406551F1C
:10051000F2CF4695F1DF08C0161617061806991F88
:10052000F1CF86957105610508940895E894BB277D
:1005300066277727CB0197F908950E94500208F4A7
:100540008FEF08950E94B5020C9426030E941803B1
:1005500038F00E941F0320F0952311F00C940F0334
:100560000C94150311240C9497020E94740270F3EA
:10057000959FC1F3950F50E0551F629FF001729F48
:10058000BB27F00DB11D639FAA27F00DB11DAA1F57
:10059000649F6627B00DA11D661F829F2227B00DA4
:1005A000A11D621F739FB00DA11D621F839FA00D2F
:1005B000611D221F749F3327A00D611D231F849F7F
:1005C000600D211D822F762F6A2F11249F575040D6
:1005D0009AF0F1F088234AF0EE0FFF1FBB1F661F51
:1005E000771F881F91505040A9F79E3F510580F01A
:1005F0000C940F030C9497025F3FE4F3983ED4F3FE
:10060000869577956795B795F795E7959F5FC1F7BD
:10061000FE2B880F911D9695879597F9089597F968
:100620009F6780E870E060E008959FEF80EC089598
:1006300000240A94161617061806090608950024C1
:100640000A9412161306140605060895092E03943B
:10065000000C11F4882352F0BB0F40F4BF2B11F4AF
:1006600060FF04C06F5F7F4F8F4F9F4F0895F894D6
:02067000FFCFBA
:00000001FF
